{
  "transactions": [
    {
      "hash": "0x1394561c72a6bcbdd376cf23d09b1434ded111addd4088a882312e77fd748b66",
      "transactionType": "CALL",
      "contractName": null,
      "contractAddress": "0x9fdd7a16295c2004e61ff28b98d323e130fd2240",
      "function": "addParcelsBatch(int256[],int256[],uint256[],uint256[])",
      "arguments": [
        "[100, 101, 102, 100, 101, 102, 100, 101, 102, 103]",
        "[100, 100, 100, 101, 101, 101, 102, 102, 102, 100]",
        "[1, 1, 1, 1, 1, 1, 1, 1, 1, 1]",
        "[1000000000000000000000, 1000000000000000000000, 1000000000000000000000, 1000000000000000000000, 1000000000000000000000, 1000000000000000000000, 1000000000000000000000, 1000000000000000000000, 1000000000000000000000, 1000000000000000000000]"
      ],
      "transaction": {
        "from": "0x286a19a5f355bb63cc03ffe95fa6d8ee3022fe8d",
        "to": "0x9fdd7a16295c2004e61ff28b98d323e130fd2240",
        "gas": "0x193020",
        "value": "0x0",
        "input": "0x5a476d9e000000000000000000000000000000000000000000000000000000000000008000000000000000000000000000000000000000000000000000000000000001e0000000000000000000000000000000000000000000000000000000000000034000000000000000000000000000000000000000000000000000000000000004a0000000000000000000000000000000000000000000000000000000000000000a0000000000000000000000000000000000000000000000000000000000000064000000000000000000000000000000000000000000000000000000000000006500000000000000000000000000000000000000000000000000000000000000660000000000000000000000000000000000000000000000000000000000000064000000000000000000000000000000000000000000000000000000000000006500000000000000000000000000000000000000000000000000000000000000660000000000000000000000000000000000000000000000000000000000000064000000000000000000000000000000000000000000000000000000000000006500000000000000000000000000000000000000000000000000000000000000660000000000000000000000000000000000000000000000000000000000000067000000000000000000000000000000000000000000000000000000000000000a0000000000000000000000000000000000000000000000000000000000000064000000000000000000000000000000000000000000000000000000000000006400000000000000000000000000000000000000000000000000000000000000640000000000000000000000000000000000000000000000000000000000000065000000000000000000000000000000000000000000000000000000000000006500000000000000000000000000000000000000000000000000000000000000650000000000000000000000000000000000000000000000000000000000000066000000000000000000000000000000000000000000000000000000000000006600000000000000000000000000000000000000000000000000000000000000660000000000000000000000000000000000000000000000000000000000000064000000000000000000000000000000000000000000000000000000000000000a0000000000000000000000000000000000000000000000000000000000000001000000000000000000000000000000000000000000000000000000000000000100000000000000000000000000000000000000000000000000000000000000010000000000000000000000000000000000000000000000000000000000000001000000000000000000000000000000000000000000000000000000000000000100000000000000000000000000000000000000000000000000000000000000010000000000000000000000000000000000000000000000000000000000000001000000000000000000000000000000000000000000000000000000000000000100000000000000000000000000000000000000000000000000000000000000010000000000000000000000000000000000000000000000000000000000000001000000000000000000000000000000000000000000000000000000000000000a00000000000000000000000000000000000000000000003635c9adc5dea0000000000000000000000000000000000000000000000000003635c9adc5dea0000000000000000000000000000000000000000000000000003635c9adc5dea0000000000000000000000000000000000000000000000000003635c9adc5dea0000000000000000000000000000000000000000000000000003635c9adc5dea0000000000000000000000000000000000000000000000000003635c9adc5dea0000000000000000000000000000000000000000000000000003635c9adc5dea0000000000000000000000000000000000000000000000000003635c9adc5dea0000000000000000000000000000000000000000000000000003635c9adc5dea0000000000000000000000000000000000000000000000000003635c9adc5dea00000",
        "nonce": "0x26",
        "chainId": "0x2105"
      },
      "additionalContracts": [],
      "isFixedGasLimit": false
    }
  ],
  "receipts": [
    {
      "status": "0x1",
      "cumulativeGasUsed": "0x965eae",
      "logs": [
        {
          "address": "0x9fdd7a16295c2004e61ff28b98d323e130fd2240",
          "topics": [
            "0xea1187632c84ed38b32afa1d4aef398644d9debf69114266cd737a220fb82023",
            "0x0000000000000000000000000000000000000000000000000000000000000001"
          ],
          "data": "0x000000000000000000000000000000000000000000000000000000000000006400000000000000000000000000000000000000000000000000000000000000640000000000000000000000000000000000000000000000000000000000000001",
          "blockHash": "0xb23fb3b44e8db4e068aa2772f3c6e361528fbef7e0df9ecbf132c2f122ffb54b",
          "blockNumber": "0x24b71e9",
          "blockTimestamp": "0x692140b5",
          "transactionHash": "0x1394561c72a6bcbdd376cf23d09b1434ded111addd4088a882312e77fd748b66",
          "transactionIndex": "0x49",
          "logIndex": "0xd4",
          "removed": false
        },
        {
          "address": "0x9fdd7a16295c2004e61ff28b98d323e130fd2240",
          "topics": [
            "0xea1187632c84ed38b32afa1d4aef398644d9debf69114266cd737a220fb82023",
            "0x0000000000000000000000000000000000000000000000000000000000000002"
          ],
          "data": "0x000000000000000000000000000000000000000000000000000000000000006500000000000000000000000000000000000000000000000000000000000000640000000000000000000000000000000000000000000000000000000000000001",
          "blockHash": "0xb23fb3b44e8db4e068aa2772f3c6e361528fbef7e0df9ecbf132c2f122ffb54b",
          "blockNumber": "0x24b71e9",
          "blockTimestamp": "0x692140b5",
          "transactionHash": "0x1394561c72a6bcbdd376cf23d09b1434ded111addd4088a882312e77fd748b66",
          "transactionIndex": "0x49",
          "logIndex": "0xd5",
          "removed": false
        },
        {
          "address": "0x9fdd7a16295c2004e61ff28b98d323e130fd2240",
          "topics": [
            "0xea1187632c84ed38b32afa1d4aef398644d9debf69114266cd737a220fb82023",
            "0x0000000000000000000000000000000000000000000000000000000000000003"
          ],
          "data": "0x000000000000000000000000000000000000000000000000000000000000006600000000000000000000000000000000000000000000000000000000000000640000000000000000000000000000000000000000000000000000000000000001",
          "blockHash": "0xb23fb3b44e8db4e068aa2772f3c6e361528fbef7e0df9ecbf132c2f122ffb54b",
          "blockNumber": "0x24b71e9",
          "blockTimestamp": "0x692140b5",
          "transactionHash": "0x1394561c72a6bcbdd376cf23d09b1434ded111addd4088a882312e77fd748b66",
          "transactionIndex": "0x49",
          "logIndex": "0xd6",
          "removed": false
        },
        {
          "address": "0x9fdd7a16295c2004e61ff28b98d323e130fd2240",
          "topics": [
            "0xea1187632c84ed38b32afa1d4aef398644d9debf69114266cd737a220fb82023",
            "0x0000000000000000000000000000000000000000000000000000000000000004"
          ],
          "data": "0x000000000000000000000000000000000000000000000000000000000000006400000000000000000000000000000000000000000000000000000000000000650000000000000000000000000000000000000000000000000000000000000001",
          "blockHash": "0xb23fb3b44e8db4e068aa2772f3c6e361528fbef7e0df9ecbf132c2f122ffb54b",
          "blockNumber": "0x24b71e9",
          "blockTimestamp": "0x692140b5",
          "transactionHash": "0x1394561c72a6bcbdd376cf23d09b1434ded111addd4088a882312e77fd748b66",
          "transactionIndex": "0x49",
          "logIndex": "0xd7",
          "removed": false
        },
        {
          "address": "0x9fdd7a16295c2004e61ff28b98d323e130fd2240",
          "topics": [
            "0xea1187632c84ed38b32afa1d4aef398644d9debf69114266cd737a220fb82023",
            "0x0000000000000000000000000000000000000000000000000000000000000005"
          ],
          "data": "0x000000000000000000000000000000000000000000000000000000000000006500000000000000000000000000000000000000000000000000000000000000650000000000000000000000000000000000000000000000000000000000000001",
          "blockHash": "0xb23fb3b44e8db4e068aa2772f3c6e361528fbef7e0df9ecbf132c2f122ffb54b",
          "blockNumber": "0x24b71e9",
          "blockTimestamp": "0x692140b5",
          "transactionHash": "0x1394561c72a6bcbdd376cf23d09b1434ded111addd4088a882312e77fd748b66",
          "transactionIndex": "0x49",
          "logIndex": "0xd8",
          "removed": false
        },
        {
          "address": "0x9fdd7a16295c2004e61ff28b98d323e130fd2240",
          "topics": [
            "0xea1187632c84ed38b32afa1d4aef398644d9debf69114266cd737a220fb82023",
            "0x0000000000000000000000000000000000000000000000000000000000000006"
          ],
          "data": "0x000000000000000000000000000000000000000000000000000000000000006600000000000000000000000000000000000000000000000000000000000000650000000000000000000000000000000000000000000000000000000000000001",
          "blockHash": "0xb23fb3b44e8db4e068aa2772f3c6e361528fbef7e0df9ecbf132c2f122ffb54b",
          "blockNumber": "0x24b71e9",
          "blockTimestamp": "0x692140b5",
          "transactionHash": "0x1394561c72a6bcbdd376cf23d09b1434ded111addd4088a882312e77fd748b66",
          "transactionIndex": "0x49",
          "logIndex": "0xd9",
          "removed": false
        },
        {
          "address": "0x9fdd7a16295c2004e61ff28b98d323e130fd2240",
          "topics": [
            "0xea1187632c84ed38b32afa1d4aef398644d9debf69114266cd737a220fb82023",
            "0x0000000000000000000000000000000000000000000000000000000000000007"
          ],
          "data": "0x000000000000000000000000000000000000000000000000000000000000006400000000000000000000000000000000000000000000000000000000000000660000000000000000000000000000000000000000000000000000000000000001",
          "blockHash": "0xb23fb3b44e8db4e068aa2772f3c6e361528fbef7e0df9ecbf132c2f122ffb54b",
          "blockNumber": "0x24b71e9",
          "blockTimestamp": "0x692140b5",
          "transactionHash": "0x1394561c72a6bcbdd376cf23d09b1434ded111addd4088a882312e77fd748b66",
          "transactionIndex": "0x49",
          "logIndex": "0xda",
          "removed": false
        },
        {
          "address": "0x9fdd7a16295c2004e61ff28b98d323e130fd2240",
          "topics": [
            "0xea1187632c84ed38b32afa1d4aef398644d9debf69114266cd737a220fb82023",
            "0x0000000000000000000000000000000000000000000000000000000000000008"
          ],
          "data": "0x000000000000000000000000000000000000000000000000000000000000006500000000000000000000000000000000000000000000000000000000000000660000000000000000000000000000000000000000000000000000000000000001",
          "blockHash": "0xb23fb3b44e8db4e068aa2772f3c6e361528fbef7e0df9ecbf132c2f122ffb54b",
          "blockNumber": "0x24b71e9",
          "blockTimestamp": "0x692140b5",
          "transactionHash": "0x1394561c72a6bcbdd376cf23d09b1434ded111addd4088a882312e77fd748b66",
          "transactionIndex": "0x49",
          "logIndex": "0xdb",
          "removed": false
        },
        {
          "address": "0x9fdd7a16295c2004e61ff28b98d323e130fd2240",
          "topics": [
            "0xea1187632c84ed38b32afa1d4aef398644d9debf69114266cd737a220fb82023",
            "0x0000000000000000000000000000000000000000000000000000000000000009"
          ],
          "data": "0x000000000000000000000000000000000000000000000000000000000000006600000000000000000000000000000000000000000000000000000000000000660000000000000000000000000000000000000000000000000000000000000001",
          "blockHash": "0xb23fb3b44e8db4e068aa2772f3c6e361528fbef7e0df9ecbf132c2f122ffb54b",
          "blockNumber": "0x24b71e9",
          "blockTimestamp": "0x692140b5",
          "transactionHash": "0x1394561c72a6bcbdd376cf23d09b1434ded111addd4088a882312e77fd748b66",
          "transactionIndex": "0x49",
          "logIndex": "0xdc",
          "removed": false
        },
        {
          "address": "0x9fdd7a16295c2004e61ff28b98d323e130fd2240",
          "topics": [
            "0xea1187632c84ed38b32afa1d4aef398644d9debf69114266cd737a220fb82023",
            "0x000000000000000000000000000000000000000000000000000000000000000a"
          ],
          "data": "0x000000000000000000000000000000000000000000000000000000000000006700000000000000000000000000000000000000000000000000000000000000640000000000000000000000000000000000000000000000000000000000000001",
          "blockHash": "0xb23fb3b44e8db4e068aa2772f3c6e361528fbef7e0df9ecbf132c2f122ffb54b",
          "blockNumber": "0x24b71e9",
          "blockTimestamp": "0x692140b5",
          "transactionHash": "0x1394561c72a6bcbdd376cf23d09b1434ded111addd4088a882312e77fd748b66",
          "transactionIndex": "0x49",
          "logIndex": "0xdd",
          "removed": false
        }
      ],
      "logsBloom": "0x04000000000000000000400000000000000000000000000000000000000020000000000000000000000000000000000000001000060480000020000000240000000030000000000000000000000000000000000000040000000000000000000008000000000000000000000000000000000000000008000000000000000000000080000400000000010000000000001000001800000000000000000000000000000000000000000000010100000000000000000000800000002000080000400040000000000000000000000000000000000000008000000000000100000040000000000000000000000080000000000000000000008000000000000000800000",
      "type": "0x2",
      "transactionHash": "0x1394561c72a6bcbdd376cf23d09b1434ded111addd4088a882312e77fd748b66",
      "transactionIndex": "0x49",
      "blockHash": "0xb23fb3b44e8db4e068aa2772f3c6e361528fbef7e0df9ecbf132c2f122ffb54b",
      "blockNumber": "0x24b71e9",
      "gasUsed": "0x123c54",
      "effectiveGasPrice": "0x1b7d9e",
      "from": "0x286a19a5f355bb63cc03ffe95fa6d8ee3022fe8d",
      "to": "0x9fdd7a16295c2004e61ff28b98d323e130fd2240",
      "contractAddress": null,
      "l1BaseFeeScalar": "0x8dd",
      "l1BlobBaseFee": "0x1",
      "l1BlobBaseFeeScalar": "0x101c12",
      "l1Fee": "0x1db3e22c",
      "l1GasPrice": "0x82e80a4",
      "l1GasUsed": "0xa33"
    }
  ],
  "libraries": [],
  "pending": [],
  "returns": {},
  "timestamp": 1763786931628,
  "chain": 8453,
  "commit": "9da9a4b"
}